{
  "contracts/mocks/MockTokenManager.sol": {
    "MockTokenManager": {
      "abi": [
        {
          "inputs": [
            {
              "internalType": "address",
              "name": "_receiver",
              "type": "address"
            },
            {
              "internalType": "uint256",
              "name": "_amount",
              "type": "uint256"
            },
            {
              "internalType": "uint64",
              "name": "_start",
              "type": "uint64"
            },
            {
              "internalType": "uint64",
              "name": "_cliff",
              "type": "uint64"
            },
            {
              "internalType": "uint64",
              "name": "_vested",
              "type": "uint64"
            },
            {
              "internalType": "bool",
              "name": "_revokable",
              "type": "bool"
            }
          ],
          "name": "assignVested",
          "outputs": [
            {
              "internalType": "uint256",
              "name": "",
              "type": "uint256"
            }
          ],
          "stateMutability": "nonpayable",
          "type": "function"
        }
      ],
      "evm": {
        "bytecode": {
          "linkReferences": {},
          "object": "608060405234801561001057600080fd5b5060d08061001f6000396000f3fe6080604052348015600f57600080fd5b506004361060285760003560e01c806321cb18cd14602d575b600080fd5b607e600480360360c0811015604157600080fd5b506001600160a01b038135169060208101359067ffffffffffffffff604082013581169160608101358216916080820135169060a0013515156090565b60408051918252519081900360200190f35b509294935050505056fea2646970667358221220a1c3cbefdc11c374629e7a5d8baa19e422d7ed67f629f40830b94607010c874464736f6c63430007030033",
          "opcodes": "PUSH1 0x80 PUSH1 0x40 MSTORE CALLVALUE DUP1 ISZERO PUSH2 0x10 JUMPI PUSH1 0x0 DUP1 REVERT JUMPDEST POP PUSH1 0xD0 DUP1 PUSH2 0x1F PUSH1 0x0 CODECOPY PUSH1 0x0 RETURN INVALID PUSH1 0x80 PUSH1 0x40 MSTORE CALLVALUE DUP1 ISZERO PUSH1 0xF JUMPI PUSH1 0x0 DUP1 REVERT JUMPDEST POP PUSH1 0x4 CALLDATASIZE LT PUSH1 0x28 JUMPI PUSH1 0x0 CALLDATALOAD PUSH1 0xE0 SHR DUP1 PUSH4 0x21CB18CD EQ PUSH1 0x2D JUMPI JUMPDEST PUSH1 0x0 DUP1 REVERT JUMPDEST PUSH1 0x7E PUSH1 0x4 DUP1 CALLDATASIZE SUB PUSH1 0xC0 DUP2 LT ISZERO PUSH1 0x41 JUMPI PUSH1 0x0 DUP1 REVERT JUMPDEST POP PUSH1 0x1 PUSH1 0x1 PUSH1 0xA0 SHL SUB DUP2 CALLDATALOAD AND SWAP1 PUSH1 0x20 DUP2 ADD CALLDATALOAD SWAP1 PUSH8 0xFFFFFFFFFFFFFFFF PUSH1 0x40 DUP3 ADD CALLDATALOAD DUP2 AND SWAP2 PUSH1 0x60 DUP2 ADD CALLDATALOAD DUP3 AND SWAP2 PUSH1 0x80 DUP3 ADD CALLDATALOAD AND SWAP1 PUSH1 0xA0 ADD CALLDATALOAD ISZERO ISZERO PUSH1 0x90 JUMP JUMPDEST PUSH1 0x40 DUP1 MLOAD SWAP2 DUP3 MSTORE MLOAD SWAP1 DUP2 SWAP1 SUB PUSH1 0x20 ADD SWAP1 RETURN JUMPDEST POP SWAP3 SWAP5 SWAP4 POP POP POP POP JUMP INVALID LOG2 PUSH5 0x6970667358 0x22 SLT KECCAK256 LOG1 0xC3 0xCB 0xEF 0xDC GT 0xC3 PUSH21 0x629E7A5D8BAA19E422D7ED67F629F40830B9460701 0xC DUP8 DIFFICULTY PUSH5 0x736F6C6343 STOP SMOD SUB STOP CALLER "
        },
        "methodIdentifiers": {
          "assignVested(address,uint256,uint64,uint64,uint64,bool)": "21cb18cd"
        }
      }
    }
  }
}